{
  "_format": "hh-sol-artifact-1",
  "contractName": "TourPass",
  "sourceName": "contracts/TourPass.sol",
  "abi": [
    {
      "inputs": [],
      "stateMutability": "nonpayable",
      "type": "constructor"
    },
    {
      "inputs": [
        {
          "internalType": "address",
          "name": "sender",
          "type": "address"
        },
        {
          "internalType": "uint256",
          "name": "tokenId",
          "type": "uint256"
        },
        {
          "internalType": "address",
          "name": "owner",
          "type": "address"
        }
      ],
      "name": "ERC721IncorrectOwner",
      "type": "error"
    },
    {
      "inputs": [
        {
          "internalType": "address",
          "name": "operator",
          "type": "address"
        },
        {
          "internalType": "uint256",
          "name": "tokenId",
          "type": "uint256"
        }
      ],
      "name": "ERC721InsufficientApproval",
      "type": "error"
    },
    {
      "inputs": [
        {
          "internalType": "address",
          "name": "approver",
          "type": "address"
        }
      ],
      "name": "ERC721InvalidApprover",
      "type": "error"
    },
    {
      "inputs": [
        {
          "internalType": "address",
          "name": "operator",
          "type": "address"
        }
      ],
      "name": "ERC721InvalidOperator",
      "type": "error"
    },
    {
      "inputs": [
        {
          "internalType": "address",
          "name": "owner",
          "type": "address"
        }
      ],
      "name": "ERC721InvalidOwner",
      "type": "error"
    },
    {
      "inputs": [
        {
          "internalType": "address",
          "name": "receiver",
          "type": "address"
        }
      ],
      "name": "ERC721InvalidReceiver",
      "type": "error"
    },
    {
      "inputs": [
        {
          "internalType": "address",
          "name": "sender",
          "type": "address"
        }
      ],
      "name": "ERC721InvalidSender",
      "type": "error"
    },
    {
      "inputs": [
        {
          "internalType": "uint256",
          "name": "tokenId",
          "type": "uint256"
        }
      ],
      "name": "ERC721NonexistentToken",
      "type": "error"
    },
    {
      "inputs": [
        {
          "internalType": "address",
          "name": "owner",
          "type": "address"
        }
      ],
      "name": "OwnableInvalidOwner",
      "type": "error"
    },
    {
      "inputs": [
        {
          "internalType": "address",
          "name": "account",
          "type": "address"
        }
      ],
      "name": "OwnableUnauthorizedAccount",
      "type": "error"
    },
    {
      "anonymous": false,
      "inputs": [
        {
          "indexed": true,
          "internalType": "address",
          "name": "owner",
          "type": "address"
        },
        {
          "indexed": true,
          "internalType": "address",
          "name": "approved",
          "type": "address"
        },
        {
          "indexed": true,
          "internalType": "uint256",
          "name": "tokenId",
          "type": "uint256"
        }
      ],
      "name": "Approval",
      "type": "event"
    },
    {
      "anonymous": false,
      "inputs": [
        {
          "indexed": true,
          "internalType": "address",
          "name": "owner",
          "type": "address"
        },
        {
          "indexed": true,
          "internalType": "address",
          "name": "operator",
          "type": "address"
        },
        {
          "indexed": false,
          "internalType": "bool",
          "name": "approved",
          "type": "bool"
        }
      ],
      "name": "ApprovalForAll",
      "type": "event"
    },
    {
      "anonymous": false,
      "inputs": [
        {
          "indexed": false,
          "internalType": "uint256",
          "name": "_fromTokenId",
          "type": "uint256"
        },
        {
          "indexed": false,
          "internalType": "uint256",
          "name": "_toTokenId",
          "type": "uint256"
        }
      ],
      "name": "BatchMetadataUpdate",
      "type": "event"
    },
    {
      "anonymous": false,
      "inputs": [
        {
          "indexed": false,
          "internalType": "uint256",
          "name": "_tokenId",
          "type": "uint256"
        }
      ],
      "name": "MetadataUpdate",
      "type": "event"
    },
    {
      "anonymous": false,
      "inputs": [
        {
          "indexed": true,
          "internalType": "address",
          "name": "previousOwner",
          "type": "address"
        },
        {
          "indexed": true,
          "internalType": "address",
          "name": "newOwner",
          "type": "address"
        }
      ],
      "name": "OwnershipTransferred",
      "type": "event"
    },
    {
      "anonymous": false,
      "inputs": [
        {
          "indexed": true,
          "internalType": "address",
          "name": "from",
          "type": "address"
        },
        {
          "indexed": true,
          "internalType": "address",
          "name": "to",
          "type": "address"
        },
        {
          "indexed": true,
          "internalType": "uint256",
          "name": "tokenId",
          "type": "uint256"
        }
      ],
      "name": "Transfer",
      "type": "event"
    },
    {
      "inputs": [
        {
          "internalType": "address",
          "name": "to",
          "type": "address"
        },
        {
          "internalType": "uint256",
          "name": "tokenId",
          "type": "uint256"
        }
      ],
      "name": "approve",
      "outputs": [],
      "stateMutability": "nonpayable",
      "type": "function"
    },
    {
      "inputs": [
        {
          "internalType": "address",
          "name": "owner",
          "type": "address"
        }
      ],
      "name": "balanceOf",
      "outputs": [
        {
          "internalType": "uint256",
          "name": "",
          "type": "uint256"
        }
      ],
      "stateMutability": "view",
      "type": "function"
    },
    {
      "inputs": [
        {
          "internalType": "uint256",
          "name": "tokenId",
          "type": "uint256"
        }
      ],
      "name": "getApproved",
      "outputs": [
        {
          "internalType": "address",
          "name": "",
          "type": "address"
        }
      ],
      "stateMutability": "view",
      "type": "function"
    },
    {
      "inputs": [
        {
          "internalType": "address",
          "name": "owner",
          "type": "address"
        },
        {
          "internalType": "address",
          "name": "operator",
          "type": "address"
        }
      ],
      "name": "isApprovedForAll",
      "outputs": [
        {
          "internalType": "bool",
          "name": "",
          "type": "bool"
        }
      ],
      "stateMutability": "view",
      "type": "function"
    },
    {
      "inputs": [
        {
          "internalType": "address",
          "name": "",
          "type": "address"
        }
      ],
      "name": "minters",
      "outputs": [
        {
          "internalType": "bool",
          "name": "",
          "type": "bool"
        }
      ],
      "stateMutability": "view",
      "type": "function"
    },
    {
      "inputs": [],
      "name": "name",
      "outputs": [
        {
          "internalType": "string",
          "name": "",
          "type": "string"
        }
      ],
      "stateMutability": "view",
      "type": "function"
    },
    {
      "inputs": [],
      "name": "owner",
      "outputs": [
        {
          "internalType": "address",
          "name": "",
          "type": "address"
        }
      ],
      "stateMutability": "view",
      "type": "function"
    },
    {
      "inputs": [
        {
          "internalType": "uint256",
          "name": "tokenId",
          "type": "uint256"
        }
      ],
      "name": "ownerOf",
      "outputs": [
        {
          "internalType": "address",
          "name": "",
          "type": "address"
        }
      ],
      "stateMutability": "view",
      "type": "function"
    },
    {
      "inputs": [],
      "name": "renounceOwnership",
      "outputs": [],
      "stateMutability": "nonpayable",
      "type": "function"
    },
    {
      "inputs": [
        {
          "internalType": "address",
          "name": "to",
          "type": "address"
        },
        {
          "internalType": "string",
          "name": "uri",
          "type": "string"
        }
      ],
      "name": "safeMint",
      "outputs": [
        {
          "internalType": "uint256",
          "name": "",
          "type": "uint256"
        }
      ],
      "stateMutability": "nonpayable",
      "type": "function"
    },
    {
      "inputs": [
        {
          "internalType": "address",
          "name": "from",
          "type": "address"
        },
        {
          "internalType": "address",
          "name": "to",
          "type": "address"
        },
        {
          "internalType": "uint256",
          "name": "tokenId",
          "type": "uint256"
        }
      ],
      "name": "safeTransferFrom",
      "outputs": [],
      "stateMutability": "nonpayable",
      "type": "function"
    },
    {
      "inputs": [
        {
          "internalType": "address",
          "name": "from",
          "type": "address"
        },
        {
          "internalType": "address",
          "name": "to",
          "type": "address"
        },
        {
          "internalType": "uint256",
          "name": "tokenId",
          "type": "uint256"
        },
        {
          "internalType": "bytes",
          "name": "data",
          "type": "bytes"
        }
      ],
      "name": "safeTransferFrom",
      "outputs": [],
      "stateMutability": "nonpayable",
      "type": "function"
    },
    {
      "inputs": [
        {
          "internalType": "address",
          "name": "operator",
          "type": "address"
        },
        {
          "internalType": "bool",
          "name": "approved",
          "type": "bool"
        }
      ],
      "name": "setApprovalForAll",
      "outputs": [],
      "stateMutability": "nonpayable",
      "type": "function"
    },
    {
      "inputs": [
        {
          "internalType": "address",
          "name": "minter",
          "type": "address"
        },
        {
          "internalType": "bool",
          "name": "status",
          "type": "bool"
        }
      ],
      "name": "setMinter",
      "outputs": [],
      "stateMutability": "nonpayable",
      "type": "function"
    },
    {
      "inputs": [
        {
          "internalType": "bytes4",
          "name": "interfaceId",
          "type": "bytes4"
        }
      ],
      "name": "supportsInterface",
      "outputs": [
        {
          "internalType": "bool",
          "name": "",
          "type": "bool"
        }
      ],
      "stateMutability": "view",
      "type": "function"
    },
    {
      "inputs": [],
      "name": "symbol",
      "outputs": [
        {
          "internalType": "string",
          "name": "",
          "type": "string"
        }
      ],
      "stateMutability": "view",
      "type": "function"
    },
    {
      "inputs": [
        {
          "internalType": "uint256",
          "name": "tokenId",
          "type": "uint256"
        }
      ],
      "name": "tokenURI",
      "outputs": [
        {
          "internalType": "string",
          "name": "",
          "type": "string"
        }
      ],
      "stateMutability": "view",
      "type": "function"
    },
    {
      "inputs": [
        {
          "internalType": "address",
          "name": "from",
          "type": "address"
        },
        {
          "internalType": "address",
          "name": "to",
          "type": "address"
        },
        {
          "internalType": "uint256",
          "name": "tokenId",
          "type": "uint256"
        }
      ],
      "name": "transferFrom",
      "outputs": [],
      "stateMutability": "nonpayable",
      "type": "function"
    },
    {
      "inputs": [
        {
          "internalType": "address",
          "name": "newOwner",
          "type": "address"
        }
      ],
      "name": "transferOwnership",
      "outputs": [],
      "stateMutability": "nonpayable",
      "type": "function"
    }
  ],
  "bytecode": "0x60806040523480156200001157600080fd5b50336040518060400160405280600881526020017f546f7572506173730000000000000000000000000000000000000000000000008152506040518060400160405280600581526020017f5450415353000000000000000000000000000000000000000000000000000000815250816000908162000090919062000472565b508060019081620000a2919062000472565b505050600073ffffffffffffffffffffffffffffffffffffffff168173ffffffffffffffffffffffffffffffffffffffff16036200011a5760006040517f1e4fbdf70000000000000000000000000000000000000000000000000000000081526004016200011191906200059e565b60405180910390fd5b6200012b816200013260201b60201c565b50620005bb565b6000600760009054906101000a900473ffffffffffffffffffffffffffffffffffffffff16905081600760006101000a81548173ffffffffffffffffffffffffffffffffffffffff021916908373ffffffffffffffffffffffffffffffffffffffff1602179055508173ffffffffffffffffffffffffffffffffffffffff168173ffffffffffffffffffffffffffffffffffffffff167f8be0079c531659141344cd1fd0a4f28419497f9722a3daafe3b4186f6b6457e060405160405180910390a35050565b600081519050919050565b7f4e487b7100000000000000000000000000000000000000000000000000000000600052604160045260246000fd5b7f4e487b7100000000000000000000000000000000000000000000000000000000600052602260045260246000fd5b600060028204905060018216806200027a57607f821691505b60208210810362000290576200028f62000232565b5b50919050565b60008190508160005260206000209050919050565b60006020601f8301049050919050565b600082821b905092915050565b600060088302620002fa7fffffffffffffffffffffffffffffffffffffffffffffffffffffffffffffffff82620002bb565b620003068683620002bb565b95508019841693508086168417925050509392505050565b6000819050919050565b6000819050919050565b6000620003536200034d62000347846200031e565b62000328565b6200031e565b9050919050565b6000819050919050565b6200036f8362000332565b620003876200037e826200035a565b848454620002c8565b825550505050565b600090565b6200039e6200038f565b620003ab81848462000364565b505050565b5b81811015620003d357620003c760008262000394565b600181019050620003b1565b5050565b601f8211156200042257620003ec8162000296565b620003f784620002ab565b8101602085101562000407578190505b6200041f6200041685620002ab565b830182620003b0565b50505b505050565b600082821c905092915050565b6000620004476000198460080262000427565b1980831691505092915050565b600062000462838362000434565b9150826002028217905092915050565b6200047d82620001f8565b67ffffffffffffffff81111562000499576200049862000203565b5b620004a5825462000261565b620004b2828285620003d7565b600060209050601f831160018114620004ea5760008415620004d5578287015190505b620004e1858262000454565b86555062000551565b601f198416620004fa8662000296565b60005b828110156200052457848901518255600182019150602085019450602081019050620004fd565b8683101562000544578489015162000540601f89168262000434565b8355505b6001600288020188555050505b505050505050565b600073ffffffffffffffffffffffffffffffffffffffff82169050919050565b6000620005868262000559565b9050919050565b620005988162000579565b82525050565b6000602082019050620005b560008301846200058d565b92915050565b6128b580620005cb6000396000f3fe608060405234801561001057600080fd5b50600436106101215760003560e01c80638da5cb5b116100ad578063cf456ae711610071578063cf456ae714610306578063d204c45e14610322578063e985e9c514610352578063f2fde38b14610382578063f46eccc41461039e57610121565b80638da5cb5b1461026257806395d89b4114610280578063a22cb4651461029e578063b88d4fde146102ba578063c87b56dd146102d657610121565b806323b872dd116100f457806323b872dd146101c057806342842e0e146101dc5780636352211e146101f857806370a0823114610228578063715018a61461025857610121565b806301ffc9a71461012657806306fdde0314610156578063081812fc14610174578063095ea7b3146101a4575b600080fd5b610140600480360381019061013b9190611ca1565b6103ce565b60405161014d9190611ce9565b60405180910390f35b61015e6103e0565b60405161016b9190611d94565b60405180910390f35b61018e60048036038101906101899190611dec565b610472565b60405161019b9190611e5a565b60405180910390f35b6101be60048036038101906101b99190611ea1565b61048e565b005b6101da60048036038101906101d59190611ee1565b6104a4565b005b6101f660048036038101906101f19190611ee1565b6105a6565b005b610212600480360381019061020d9190611dec565b6105c6565b60405161021f9190611e5a565b60405180910390f35b610242600480360381019061023d9190611f34565b6105d8565b60405161024f9190611f70565b60405180910390f35b610260610692565b005b61026a6106a6565b6040516102779190611e5a565b60405180910390f35b6102886106d0565b6040516102959190611d94565b60405180910390f35b6102b860048036038101906102b39190611fb7565b610762565b005b6102d460048036038101906102cf919061212c565b610778565b005b6102f060048036038101906102eb9190611dec565b61079d565b6040516102fd9190611d94565b60405180910390f35b610320600480360381019061031b9190611fb7565b6107af565b005b61033c60048036038101906103379190612250565b610812565b6040516103499190611f70565b60405180910390f35b61036c600480360381019061036791906122ac565b610916565b6040516103799190611ce9565b60405180910390f35b61039c60048036038101906103979190611f34565b6109aa565b005b6103b860048036038101906103b39190611f34565b610a30565b6040516103c59190611ce9565b60405180910390f35b60006103d982610a50565b9050919050565b6060600080546103ef9061231b565b80601f016020809104026020016040519081016040528092919081815260200182805461041b9061231b565b80156104685780601f1061043d57610100808354040283529160200191610468565b820191906000526020600020905b81548152906001019060200180831161044b57829003601f168201915b5050505050905090565b600061047d82610ab1565b5061048782610b39565b9050919050565b6104a0828261049b610b76565b610b7e565b5050565b600073ffffffffffffffffffffffffffffffffffffffff168273ffffffffffffffffffffffffffffffffffffffff16036105165760006040517f64a0ae9200000000000000000000000000000000000000000000000000000000815260040161050d9190611e5a565b60405180910390fd5b600061052a8383610525610b76565b610b90565b90508373ffffffffffffffffffffffffffffffffffffffff168173ffffffffffffffffffffffffffffffffffffffff16146105a0578382826040517f64283d7b0000000000000000000000000000000000000000000000000000000081526004016105979392919061234c565b60405180910390fd5b50505050565b6105c183838360405180602001604052806000815250610778565b505050565b60006105d182610ab1565b9050919050565b60008073ffffffffffffffffffffffffffffffffffffffff168273ffffffffffffffffffffffffffffffffffffffff160361064b5760006040517f89c62b640000000000000000000000000000000000000000000000000000000081526004016106429190611e5a565b60405180910390fd5b600360008373ffffffffffffffffffffffffffffffffffffffff1673ffffffffffffffffffffffffffffffffffffffff168152602001908152602001600020549050919050565b61069a610daa565b6106a46000610e31565b565b6000600760009054906101000a900473ffffffffffffffffffffffffffffffffffffffff16905090565b6060600180546106df9061231b565b80601f016020809104026020016040519081016040528092919081815260200182805461070b9061231b565b80156107585780601f1061072d57610100808354040283529160200191610758565b820191906000526020600020905b81548152906001019060200180831161073b57829003601f168201915b5050505050905090565b61077461076d610b76565b8383610ef7565b5050565b6107838484846104a4565b61079761078e610b76565b85858585611066565b50505050565b60606107a882611217565b9050919050565b6107b7610daa565b80600960008473ffffffffffffffffffffffffffffffffffffffff1673ffffffffffffffffffffffffffffffffffffffff16815260200190815260200160002060006101000a81548160ff0219169083151502179055505050565b60003373ffffffffffffffffffffffffffffffffffffffff166108336106a6565b73ffffffffffffffffffffffffffffffffffffffff16148061089e5750600960003373ffffffffffffffffffffffffffffffffffffffff1673ffffffffffffffffffffffffffffffffffffffff16815260200190815260200160002060009054906101000a900460ff165b6108dd576040517f08c379a00000000000000000000000000000000000000000000000000000000081526004016108d4906123cf565b60405180910390fd5b6000600860008154809291906108f29061241e565b919050559050610902848261132a565b61090c8184611348565b8091505092915050565b6000600560008473ffffffffffffffffffffffffffffffffffffffff1673ffffffffffffffffffffffffffffffffffffffff16815260200190815260200160002060008373ffffffffffffffffffffffffffffffffffffffff1673ffffffffffffffffffffffffffffffffffffffff16815260200190815260200160002060009054906101000a900460ff16905092915050565b6109b2610daa565b600073ffffffffffffffffffffffffffffffffffffffff168173ffffffffffffffffffffffffffffffffffffffff1603610a245760006040517f1e4fbdf7000000000000000000000000000000000000000000000000000000008152600401610a1b9190611e5a565b60405180910390fd5b610a2d81610e31565b50565b60096020528060005260406000206000915054906101000a900460ff1681565b6000634906490660e01b7bffffffffffffffffffffffffffffffffffffffffffffffffffffffff1916827bffffffffffffffffffffffffffffffffffffffffffffffffffffffff19161480610aaa5750610aa9826113a4565b5b9050919050565b600080610abd83611486565b9050600073ffffffffffffffffffffffffffffffffffffffff168173ffffffffffffffffffffffffffffffffffffffff1603610b3057826040517f7e273289000000000000000000000000000000000000000000000000000000008152600401610b279190611f70565b60405180910390fd5b80915050919050565b60006004600083815260200190815260200160002060009054906101000a900473ffffffffffffffffffffffffffffffffffffffff169050919050565b600033905090565b610b8b83838360016114c3565b505050565b600080610b9c84611486565b9050600073ffffffffffffffffffffffffffffffffffffffff168373ffffffffffffffffffffffffffffffffffffffff1614610bde57610bdd818486611688565b5b600073ffffffffffffffffffffffffffffffffffffffff168173ffffffffffffffffffffffffffffffffffffffff1614610c6f57610c206000856000806114c3565b6001600360008373ffffffffffffffffffffffffffffffffffffffff1673ffffffffffffffffffffffffffffffffffffffff168152602001908152602001600020600082825403925050819055505b600073ffffffffffffffffffffffffffffffffffffffff168573ffffffffffffffffffffffffffffffffffffffff1614610cf2576001600360008773ffffffffffffffffffffffffffffffffffffffff1673ffffffffffffffffffffffffffffffffffffffff168152602001908152602001600020600082825401925050819055505b846002600086815260200190815260200160002060006101000a81548173ffffffffffffffffffffffffffffffffffffffff021916908373ffffffffffffffffffffffffffffffffffffffff160217905550838573ffffffffffffffffffffffffffffffffffffffff168273ffffffffffffffffffffffffffffffffffffffff167fddf252ad1be2c89b69c2b068fc378daa952ba7f163c4a11628f55a4df523b3ef60405160405180910390a4809150509392505050565b610db2610b76565b73ffffffffffffffffffffffffffffffffffffffff16610dd06106a6565b73ffffffffffffffffffffffffffffffffffffffff1614610e2f57610df3610b76565b6040517f118cdaa7000000000000000000000000000000000000000000000000000000008152600401610e269190611e5a565b60405180910390fd5b565b6000600760009054906101000a900473ffffffffffffffffffffffffffffffffffffffff16905081600760006101000a81548173ffffffffffffffffffffffffffffffffffffffff021916908373ffffffffffffffffffffffffffffffffffffffff1602179055508173ffffffffffffffffffffffffffffffffffffffff168173ffffffffffffffffffffffffffffffffffffffff167f8be0079c531659141344cd1fd0a4f28419497f9722a3daafe3b4186f6b6457e060405160405180910390a35050565b600073ffffffffffffffffffffffffffffffffffffffff168273ffffffffffffffffffffffffffffffffffffffff1603610f6857816040517f5b08ba18000000000000000000000000000000000000000000000000000000008152600401610f5f9190611e5a565b60405180910390fd5b80600560008573ffffffffffffffffffffffffffffffffffffffff1673ffffffffffffffffffffffffffffffffffffffff16815260200190815260200160002060008473ffffffffffffffffffffffffffffffffffffffff1673ffffffffffffffffffffffffffffffffffffffff16815260200190815260200160002060006101000a81548160ff0219169083151502179055508173ffffffffffffffffffffffffffffffffffffffff168373ffffffffffffffffffffffffffffffffffffffff167f17307eab39ab6107e8899845ad3d59bd9653f200f220920489ca2b5937696c31836040516110599190611ce9565b60405180910390a3505050565b60008373ffffffffffffffffffffffffffffffffffffffff163b1115611210578273ffffffffffffffffffffffffffffffffffffffff1663150b7a02868685856040518563ffffffff1660e01b81526004016110c594939291906124bb565b6020604051808303816000875af192505050801561110157506040513d601f19601f820116820180604052508101906110fe919061251c565b60015b611185573d8060008114611131576040519150601f19603f3d011682016040523d82523d6000602084013e611136565b606091505b50600081510361117d57836040517f64a0ae920000000000000000000000000000000000000000000000000000000081526004016111749190611e5a565b60405180910390fd5b805160208201fd5b63150b7a0260e01b7bffffffffffffffffffffffffffffffffffffffffffffffffffffffff1916817bffffffffffffffffffffffffffffffffffffffffffffffffffffffff19161461120e57836040517f64a0ae920000000000000000000000000000000000000000000000000000000081526004016112059190611e5a565b60405180910390fd5b505b5050505050565b606061122282610ab1565b5060006006600084815260200190815260200160002080546112439061231b565b80601f016020809104026020016040519081016040528092919081815260200182805461126f9061231b565b80156112bc5780601f10611291576101008083540402835291602001916112bc565b820191906000526020600020905b81548152906001019060200180831161129f57829003601f168201915b5050505050905060006112cd61174c565b905060008151036112e2578192505050611325565b6000825111156113175780826040516020016112ff929190612585565b60405160208183030381529060405292505050611325565b61132084611763565b925050505b919050565b6113448282604051806020016040528060008152506117cc565b5050565b806006600084815260200190815260200160002090816113689190612755565b507ff8e1a15aba9398e019f0b49df1a4fde98ee17ae345cb5f6b5e2c27f5033e8ce7826040516113989190611f70565b60405180910390a15050565b60007f80ac58cd000000000000000000000000000000000000000000000000000000007bffffffffffffffffffffffffffffffffffffffffffffffffffffffff1916827bffffffffffffffffffffffffffffffffffffffffffffffffffffffff1916148061146f57507f5b5e139f000000000000000000000000000000000000000000000000000000007bffffffffffffffffffffffffffffffffffffffffffffffffffffffff1916827bffffffffffffffffffffffffffffffffffffffffffffffffffffffff1916145b8061147f575061147e826117f0565b5b9050919050565b60006002600083815260200190815260200160002060009054906101000a900473ffffffffffffffffffffffffffffffffffffffff169050919050565b80806114fc5750600073ffffffffffffffffffffffffffffffffffffffff168273ffffffffffffffffffffffffffffffffffffffff1614155b1561163057600061150c84610ab1565b9050600073ffffffffffffffffffffffffffffffffffffffff168373ffffffffffffffffffffffffffffffffffffffff161415801561157757508273ffffffffffffffffffffffffffffffffffffffff168173ffffffffffffffffffffffffffffffffffffffff1614155b801561158a57506115888184610916565b155b156115cc57826040517fa9fbf51f0000000000000000000000000000000000000000000000000000000081526004016115c39190611e5a565b60405180910390fd5b811561162e57838573ffffffffffffffffffffffffffffffffffffffff168273ffffffffffffffffffffffffffffffffffffffff167f8c5be1e5ebec7d5bd14f71427d1e84f3dd0314c0f7b2291e5b200ac8c7c3b92560405160405180910390a45b505b836004600085815260200190815260200160002060006101000a81548173ffffffffffffffffffffffffffffffffffffffff021916908373ffffffffffffffffffffffffffffffffffffffff16021790555050505050565b61169383838361185a565b61174757600073ffffffffffffffffffffffffffffffffffffffff168373ffffffffffffffffffffffffffffffffffffffff160361170857806040517f7e2732890000000000000000000000000000000000000000000000000000000081526004016116ff9190611f70565b60405180910390fd5b81816040517f177e802f00000000000000000000000000000000000000000000000000000000815260040161173e929190612827565b60405180910390fd5b505050565b606060405180602001604052806000815250905090565b606061176e82610ab1565b50600061177961174c565b9050600081511161179957604051806020016040528060008152506117c4565b806117a38461191b565b6040516020016117b4929190612585565b6040516020818303038152906040525b915050919050565b6117d683836119e9565b6117eb6117e1610b76565b6000858585611066565b505050565b60007f01ffc9a7000000000000000000000000000000000000000000000000000000007bffffffffffffffffffffffffffffffffffffffffffffffffffffffff1916827bffffffffffffffffffffffffffffffffffffffffffffffffffffffff1916149050919050565b60008073ffffffffffffffffffffffffffffffffffffffff168373ffffffffffffffffffffffffffffffffffffffff161415801561191257508273ffffffffffffffffffffffffffffffffffffffff168473ffffffffffffffffffffffffffffffffffffffff1614806118d357506118d28484610916565b5b8061191157508273ffffffffffffffffffffffffffffffffffffffff166118f983610b39565b73ffffffffffffffffffffffffffffffffffffffff16145b5b90509392505050565b60606000600161192a84611ae2565b01905060008167ffffffffffffffff81111561194957611948612001565b5b6040519080825280601f01601f19166020018201604052801561197b5781602001600182028036833780820191505090505b509050600082602083010190505b6001156119de578080600190039150507f3031323334353637383961626364656600000000000000000000000000000000600a86061a8153600a85816119d2576119d1612850565b5b04945060008503611989575b819350505050919050565b600073ffffffffffffffffffffffffffffffffffffffff168273ffffffffffffffffffffffffffffffffffffffff1603611a5b5760006040517f64a0ae92000000000000000000000000000000000000000000000000000000008152600401611a529190611e5a565b60405180910390fd5b6000611a6983836000610b90565b9050600073ffffffffffffffffffffffffffffffffffffffff168173ffffffffffffffffffffffffffffffffffffffff1614611add5760006040517f73c6ac6e000000000000000000000000000000000000000000000000000000008152600401611ad49190611e5a565b60405180910390fd5b505050565b600080600090507a184f03e93ff9f4daa797ed6e38ed64bf6a1f0100000000000000008310611b40577a184f03e93ff9f4daa797ed6e38ed64bf6a1f0100000000000000008381611b3657611b35612850565b5b0492506040810190505b6d04ee2d6d415b85acef81000000008310611b7d576d04ee2d6d415b85acef81000000008381611b7357611b72612850565b5b0492506020810190505b662386f26fc100008310611bac57662386f26fc100008381611ba257611ba1612850565b5b0492506010810190505b6305f5e1008310611bd5576305f5e1008381611bcb57611bca612850565b5b0492506008810190505b6127108310611bfa576127108381611bf057611bef612850565b5b0492506004810190505b60648310611c1d5760648381611c1357611c12612850565b5b0492506002810190505b600a8310611c2c576001810190505b80915050919050565b6000604051905090565b600080fd5b600080fd5b60007fffffffff0000000000000000000000000000000000000000000000000000000082169050919050565b611c7e81611c49565b8114611c8957600080fd5b50565b600081359050611c9b81611c75565b92915050565b600060208284031215611cb757611cb6611c3f565b5b6000611cc584828501611c8c565b91505092915050565b60008115159050919050565b611ce381611cce565b82525050565b6000602082019050611cfe6000830184611cda565b92915050565b600081519050919050565b600082825260208201905092915050565b60005b83811015611d3e578082015181840152602081019050611d23565b60008484015250505050565b6000601f19601f8301169050919050565b6000611d6682611d04565b611d708185611d0f565b9350611d80818560208601611d20565b611d8981611d4a565b840191505092915050565b60006020820190508181036000830152611dae8184611d5b565b905092915050565b6000819050919050565b611dc981611db6565b8114611dd457600080fd5b50565b600081359050611de681611dc0565b92915050565b600060208284031215611e0257611e01611c3f565b5b6000611e1084828501611dd7565b91505092915050565b600073ffffffffffffffffffffffffffffffffffffffff82169050919050565b6000611e4482611e19565b9050919050565b611e5481611e39565b82525050565b6000602082019050611e6f6000830184611e4b565b92915050565b611e7e81611e39565b8114611e8957600080fd5b50565b600081359050611e9b81611e75565b92915050565b60008060408385031215611eb857611eb7611c3f565b5b6000611ec685828601611e8c565b9250506020611ed785828601611dd7565b9150509250929050565b600080600060608486031215611efa57611ef9611c3f565b5b6000611f0886828701611e8c565b9350506020611f1986828701611e8c565b9250506040611f2a86828701611dd7565b9150509250925092565b600060208284031215611f4a57611f49611c3f565b5b6000611f5884828501611e8c565b91505092915050565b611f6a81611db6565b82525050565b6000602082019050611f856000830184611f61565b92915050565b611f9481611cce565b8114611f9f57600080fd5b50565b600081359050611fb181611f8b565b92915050565b60008060408385031215611fce57611fcd611c3f565b5b6000611fdc85828601611e8c565b9250506020611fed85828601611fa2565b9150509250929050565b600080fd5b600080fd5b7f4e487b7100000000000000000000000000000000000000000000000000000000600052604160045260246000fd5b61203982611d4a565b810181811067ffffffffffffffff8211171561205857612057612001565b5b80604052505050565b600061206b611c35565b90506120778282612030565b919050565b600067ffffffffffffffff82111561209757612096612001565b5b6120a082611d4a565b9050602081019050919050565b82818337600083830152505050565b60006120cf6120ca8461207c565b612061565b9050828152602081018484840111156120eb576120ea611ffc565b5b6120f68482856120ad565b509392505050565b600082601f83011261211357612112611ff7565b5b81356121238482602086016120bc565b91505092915050565b6000806000806080858703121561214657612145611c3f565b5b600061215487828801611e8c565b945050602061216587828801611e8c565b935050604061217687828801611dd7565b925050606085013567ffffffffffffffff81111561219757612196611c44565b5b6121a3878288016120fe565b91505092959194509250565b600067ffffffffffffffff8211156121ca576121c9612001565b5b6121d382611d4a565b9050602081019050919050565b60006121f36121ee846121af565b612061565b90508281526020810184848401111561220f5761220e611ffc565b5b61221a8482856120ad565b509392505050565b600082601f83011261223757612236611ff7565b5b81356122478482602086016121e0565b91505092915050565b6000806040838503121561226757612266611c3f565b5b600061227585828601611e8c565b925050602083013567ffffffffffffffff81111561229657612295611c44565b5b6122a285828601612222565b9150509250929050565b600080604083850312156122c3576122c2611c3f565b5b60006122d185828601611e8c565b92505060206122e285828601611e8c565b9150509250929050565b7f4e487b7100000000000000000000000000000000000000000000000000000000600052602260045260246000fd5b6000600282049050600182168061233357607f821691505b602082108103612346576123456122ec565b5b50919050565b60006060820190506123616000830186611e4b565b61236e6020830185611f61565b61237b6040830184611e4b565b949350505050565b7f4e6f7420617574686f72697a656420746f206d696e7400000000000000000000600082015250565b60006123b9601683611d0f565b91506123c482612383565b602082019050919050565b600060208201905081810360008301526123e8816123ac565b9050919050565b7f4e487b7100000000000000000000000000000000000000000000000000000000600052601160045260246000fd5b600061242982611db6565b91507fffffffffffffffffffffffffffffffffffffffffffffffffffffffffffffffff820361245b5761245a6123ef565b5b600182019050919050565b600081519050919050565b600082825260208201905092915050565b600061248d82612466565b6124978185612471565b93506124a7818560208601611d20565b6124b081611d4a565b840191505092915050565b60006080820190506124d06000830187611e4b565b6124dd6020830186611e4b565b6124ea6040830185611f61565b81810360608301526124fc8184612482565b905095945050505050565b60008151905061251681611c75565b92915050565b60006020828403121561253257612531611c3f565b5b600061254084828501612507565b91505092915050565b600081905092915050565b600061255f82611d04565b6125698185612549565b9350612579818560208601611d20565b80840191505092915050565b60006125918285612554565b915061259d8284612554565b91508190509392505050565b60008190508160005260206000209050919050565b60006020601f8301049050919050565b600082821b905092915050565b60006008830261260b7fffffffffffffffffffffffffffffffffffffffffffffffffffffffffffffffff826125ce565b61261586836125ce565b95508019841693508086168417925050509392505050565b6000819050919050565b600061265261264d61264884611db6565b61262d565b611db6565b9050919050565b6000819050919050565b61266c83612637565b61268061267882612659565b8484546125db565b825550505050565b600090565b612695612688565b6126a0818484612663565b505050565b5b818110156126c4576126b960008261268d565b6001810190506126a6565b5050565b601f821115612709576126da816125a9565b6126e3846125be565b810160208510156126f2578190505b6127066126fe856125be565b8301826126a5565b50505b505050565b600082821c905092915050565b600061272c6000198460080261270e565b1980831691505092915050565b6000612745838361271b565b9150826002028217905092915050565b61275e82611d04565b67ffffffffffffffff81111561277757612776612001565b5b612781825461231b565b61278c8282856126c8565b600060209050601f8311600181146127bf57600084156127ad578287015190505b6127b78582612739565b86555061281f565b601f1984166127cd866125a9565b60005b828110156127f5578489015182556001820191506020850194506020810190506127d0565b86831015612812578489015161280e601f89168261271b565b8355505b6001600288020188555050505b505050505050565b600060408201905061283c6000830185611e4b565b6128496020830184611f61565b9392505050565b7f4e487b7100000000000000000000000000000000000000000000000000000000600052601260045260246000fdfea264697066735822122066c6fca456e33c431224af7dfca8b7eaab8ed4eace070e29c95377f5c8a05c5a64736f6c63430008140033",
  "linkReferences": {},
  "deployedLinkReferences": {}
}