{
  "_format": "hh-sol-artifact-1",
  "contractName": "TourMarketplace",
  "sourceName": "contracts/TourMarketplace.sol",
  "abi": [
    {
      "inputs": [
        {
          "internalType": "address",
          "name": "_tokenAddress",
          "type": "address"
        },
        {
          "internalType": "address",
          "name": "_passAddress",
          "type": "address"
        }
      ],
      "stateMutability": "nonpayable",
      "type": "constructor"
    },
    {
      "inputs": [
        {
          "internalType": "address",
          "name": "owner",
          "type": "address"
        }
      ],
      "name": "OwnableInvalidOwner",
      "type": "error"
    },
    {
      "inputs": [
        {
          "internalType": "address",
          "name": "account",
          "type": "address"
        }
      ],
      "name": "OwnableUnauthorizedAccount",
      "type": "error"
    },
    {
      "anonymous": false,
      "inputs": [
        {
          "indexed": true,
          "internalType": "address",
          "name": "previousOwner",
          "type": "address"
        },
        {
          "indexed": true,
          "internalType": "address",
          "name": "newOwner",
          "type": "address"
        }
      ],
      "name": "OwnershipTransferred",
      "type": "event"
    },
    {
      "anonymous": false,
      "inputs": [
        {
          "indexed": true,
          "internalType": "address",
          "name": "buyer",
          "type": "address"
        },
        {
          "indexed": false,
          "internalType": "uint256",
          "name": "tokenId",
          "type": "uint256"
        },
        {
          "indexed": false,
          "internalType": "uint256",
          "name": "passTypeId",
          "type": "uint256"
        }
      ],
      "name": "PassPurchased",
      "type": "event"
    },
    {
      "anonymous": false,
      "inputs": [
        {
          "indexed": true,
          "internalType": "uint256",
          "name": "id",
          "type": "uint256"
        },
        {
          "indexed": false,
          "internalType": "uint256",
          "name": "price",
          "type": "uint256"
        },
        {
          "indexed": false,
          "internalType": "string",
          "name": "metadataURI",
          "type": "string"
        }
      ],
      "name": "PassTypeAdded",
      "type": "event"
    },
    {
      "anonymous": false,
      "inputs": [
        {
          "indexed": true,
          "internalType": "address",
          "name": "tourist",
          "type": "address"
        },
        {
          "indexed": false,
          "internalType": "string",
          "name": "location",
          "type": "string"
        },
        {
          "indexed": false,
          "internalType": "uint256",
          "name": "reward",
          "type": "uint256"
        }
      ],
      "name": "VisitVerified",
      "type": "event"
    },
    {
      "inputs": [
        {
          "internalType": "uint256",
          "name": "id",
          "type": "uint256"
        },
        {
          "internalType": "uint256",
          "name": "price",
          "type": "uint256"
        },
        {
          "internalType": "string",
          "name": "metadataURI",
          "type": "string"
        }
      ],
      "name": "addPassType",
      "outputs": [],
      "stateMutability": "nonpayable",
      "type": "function"
    },
    {
      "inputs": [
        {
          "internalType": "uint256",
          "name": "passTypeId",
          "type": "uint256"
        }
      ],
      "name": "buyPass",
      "outputs": [],
      "stateMutability": "payable",
      "type": "function"
    },
    {
      "inputs": [],
      "name": "getPassTypeIds",
      "outputs": [
        {
          "internalType": "uint256[]",
          "name": "",
          "type": "uint256[]"
        }
      ],
      "stateMutability": "view",
      "type": "function"
    },
    {
      "inputs": [
        {
          "internalType": "address",
          "name": "user",
          "type": "address"
        }
      ],
      "name": "getUserVisits",
      "outputs": [
        {
          "components": [
            {
              "internalType": "string",
              "name": "location",
              "type": "string"
            },
            {
              "internalType": "uint256",
              "name": "timestamp",
              "type": "uint256"
            },
            {
              "internalType": "uint256",
              "name": "reward",
              "type": "uint256"
            }
          ],
          "internalType": "struct TourMarketplace.Visit[]",
          "name": "",
          "type": "tuple[]"
        }
      ],
      "stateMutability": "view",
      "type": "function"
    },
    {
      "inputs": [],
      "name": "owner",
      "outputs": [
        {
          "internalType": "address",
          "name": "",
          "type": "address"
        }
      ],
      "stateMutability": "view",
      "type": "function"
    },
    {
      "inputs": [
        {
          "internalType": "uint256",
          "name": "",
          "type": "uint256"
        }
      ],
      "name": "passTypeIds",
      "outputs": [
        {
          "internalType": "uint256",
          "name": "",
          "type": "uint256"
        }
      ],
      "stateMutability": "view",
      "type": "function"
    },
    {
      "inputs": [
        {
          "internalType": "uint256",
          "name": "",
          "type": "uint256"
        }
      ],
      "name": "passTypes",
      "outputs": [
        {
          "internalType": "uint256",
          "name": "price",
          "type": "uint256"
        },
        {
          "internalType": "string",
          "name": "metadataURI",
          "type": "string"
        },
        {
          "internalType": "bool",
          "name": "exists",
          "type": "bool"
        }
      ],
      "stateMutability": "view",
      "type": "function"
    },
    {
      "inputs": [],
      "name": "renounceOwnership",
      "outputs": [],
      "stateMutability": "nonpayable",
      "type": "function"
    },
    {
      "inputs": [],
      "name": "tourPass",
      "outputs": [
        {
          "internalType": "contract TourPass",
          "name": "",
          "type": "address"
        }
      ],
      "stateMutability": "view",
      "type": "function"
    },
    {
      "inputs": [],
      "name": "tourToken",
      "outputs": [
        {
          "internalType": "contract TourToken",
          "name": "",
          "type": "address"
        }
      ],
      "stateMutability": "view",
      "type": "function"
    },
    {
      "inputs": [
        {
          "internalType": "address",
          "name": "newOwner",
          "type": "address"
        }
      ],
      "name": "transferOwnership",
      "outputs": [],
      "stateMutability": "nonpayable",
      "type": "function"
    },
    {
      "inputs": [
        {
          "internalType": "uint256",
          "name": "id",
          "type": "uint256"
        },
        {
          "internalType": "uint256",
          "name": "_newPrice",
          "type": "uint256"
        }
      ],
      "name": "updatePassPrice",
      "outputs": [],
      "stateMutability": "nonpayable",
      "type": "function"
    },
    {
      "inputs": [
        {
          "internalType": "address",
          "name": "",
          "type": "address"
        },
        {
          "internalType": "uint256",
          "name": "",
          "type": "uint256"
        }
      ],
      "name": "userVisits",
      "outputs": [
        {
          "internalType": "string",
          "name": "location",
          "type": "string"
        },
        {
          "internalType": "uint256",
          "name": "timestamp",
          "type": "uint256"
        },
        {
          "internalType": "uint256",
          "name": "reward",
          "type": "uint256"
        }
      ],
      "stateMutability": "view",
      "type": "function"
    },
    {
      "inputs": [
        {
          "internalType": "address",
          "name": "tourist",
          "type": "address"
        },
        {
          "internalType": "string",
          "name": "location",
          "type": "string"
        },
        {
          "internalType": "uint256",
          "name": "rewardAmount",
          "type": "uint256"
        }
      ],
      "name": "verifyVisit",
      "outputs": [],
      "stateMutability": "nonpayable",
      "type": "function"
    },
    {
      "inputs": [],
      "name": "withdraw",
      "outputs": [],
      "stateMutability": "nonpayable",
      "type": "function"
    }
  ],
  "bytecode": "0x60806040523480156200001157600080fd5b5060405162001f4638038062001f46833981810160405281019062000037919062000277565b33600073ffffffffffffffffffffffffffffffffffffffff168173ffffffffffffffffffffffffffffffffffffffff1603620000ad5760006040517f1e4fbdf7000000000000000000000000000000000000000000000000000000008152600401620000a49190620002cf565b60405180910390fd5b620000be816200014960201b60201c565b5081600160006101000a81548173ffffffffffffffffffffffffffffffffffffffff021916908373ffffffffffffffffffffffffffffffffffffffff16021790555080600260006101000a81548173ffffffffffffffffffffffffffffffffffffffff021916908373ffffffffffffffffffffffffffffffffffffffff1602179055505050620002ec565b60008060009054906101000a900473ffffffffffffffffffffffffffffffffffffffff169050816000806101000a81548173ffffffffffffffffffffffffffffffffffffffff021916908373ffffffffffffffffffffffffffffffffffffffff1602179055508173ffffffffffffffffffffffffffffffffffffffff168173ffffffffffffffffffffffffffffffffffffffff167f8be0079c531659141344cd1fd0a4f28419497f9722a3daafe3b4186f6b6457e060405160405180910390a35050565b600080fd5b600073ffffffffffffffffffffffffffffffffffffffff82169050919050565b60006200023f8262000212565b9050919050565b620002518162000232565b81146200025d57600080fd5b50565b600081519050620002718162000246565b92915050565b600080604083850312156200029157620002906200020d565b5b6000620002a18582860162000260565b9250506020620002b48582860162000260565b9150509250929050565b620002c98162000232565b82525050565b6000602082019050620002e66000830184620002be565b92915050565b611c4a80620002fc6000396000f3fe6080604052600436106100e85760003560e01c80637a2b50f61161008a578063c6c5d4e611610059578063c6c5d4e6146102c3578063d781007f146102ee578063efdba3d41461032b578063f2fde38b14610356576100e8565b80637a2b50f6146102075780638da5cb5b14610230578063958453bd1461025b578063a907042814610284576100e8565b80633ccfd60b116100c65780633ccfd60b146101855780635bb143161461019c57806371407fab146101c5578063715018a6146101f0576100e8565b806306e75ac1146100ed57806322f5076a1461012c5780633420f9b314610169575b600080fd5b3480156100f957600080fd5b50610114600480360381019061010f9190610f6a565b61037f565b60405161012393929190611051565b60405180910390f35b34801561013857600080fd5b50610153600480360381019061014e91906110ed565b61043e565b6040516101609190611285565b60405180910390f35b610183600480360381019061017e9190610f6a565b610582565b005b34801561019157600080fd5b5061019a6107e3565b005b3480156101a857600080fd5b506101c360048036038101906101be91906112a7565b610841565b005b3480156101d157600080fd5b506101da6108cb565b6040516101e79190611396565b60405180910390f35b3480156101fc57600080fd5b50610205610923565b005b34801561021357600080fd5b5061022e600480360381019061022991906114ed565b610937565b005b34801561023c57600080fd5b50610245610ad2565b604051610252919061156b565b60405180910390f35b34801561026757600080fd5b50610282600480360381019061027d9190611586565b610afb565b005b34801561029057600080fd5b506102ab60048036038101906102a691906115f5565b610c08565b6040516102ba93929190611635565b60405180910390f35b3480156102cf57600080fd5b506102d8610cd7565b6040516102e591906116d2565b60405180910390f35b3480156102fa57600080fd5b5061031560048036038101906103109190610f6a565b610cfd565b60405161032291906116ed565b60405180910390f35b34801561033757600080fd5b50610340610d21565b60405161034d9190611729565b60405180910390f35b34801561036257600080fd5b5061037d600480360381019061037891906110ed565b610d47565b005b60036020528060005260406000206000915090508060000154908060010180546103a890611773565b80601f01602080910402602001604051908101604052809291908181526020018280546103d490611773565b80156104215780601f106103f657610100808354040283529160200191610421565b820191906000526020600020905b81548152906001019060200180831161040457829003601f168201915b5050505050908060020160009054906101000a900460ff16905083565b6060600560008373ffffffffffffffffffffffffffffffffffffffff1673ffffffffffffffffffffffffffffffffffffffff168152602001908152602001600020805480602002602001604051908101604052809291908181526020016000905b8282101561057757838290600052602060002090600302016040518060600160405290816000820180546104d290611773565b80601f01602080910402602001604051908101604052809291908181526020018280546104fe90611773565b801561054b5780601f106105205761010080835404028352916020019161054b565b820191906000526020600020905b81548152906001019060200180831161052e57829003601f168201915b50505050508152602001600182015481526020016002820154815250508152602001906001019061049f565b505050509050919050565b600060036000838152602001908152602001600020604051806060016040529081600082015481526020016001820180546105bc90611773565b80601f01602080910402602001604051908101604052809291908181526020018280546105e890611773565b80156106355780601f1061060a57610100808354040283529160200191610635565b820191906000526020600020905b81548152906001019060200180831161061857829003601f168201915b505050505081526020016002820160009054906101000a900460ff1615151515815250509050806040015161069f576040517f08c379a0000000000000000000000000000000000000000000000000000000008152600401610696906117f0565b60405180910390fd5b80600001513410156106e6576040517f08c379a00000000000000000000000000000000000000000000000000000000081526004016106dd9061185c565b60405180910390fd5b6000600260009054906101000a900473ffffffffffffffffffffffffffffffffffffffff1673ffffffffffffffffffffffffffffffffffffffff1663d204c45e3384602001516040518363ffffffff1660e01b815260040161074992919061187c565b6020604051808303816000875af1158015610768573d6000803e3d6000fd5b505050506040513d601f19601f8201168201806040525081019061078c91906118c1565b90503373ffffffffffffffffffffffffffffffffffffffff167f95f6a08cb3a2fbe1fae99a2b3b4e974c92f3f86c5abbe085486c5433d9a5ef6b82856040516107d69291906118ee565b60405180910390a2505050565b6107eb610dcd565b60004790506107f8610ad2565b73ffffffffffffffffffffffffffffffffffffffff166108fc829081150290604051600060405180830381858888f1935050505015801561083d573d6000803e3d6000fd5b5050565b610849610dcd565b6003600083815260200190815260200160002060020160009054906101000a900460ff166108ac576040517f08c379a00000000000000000000000000000000000000000000000000000000081526004016108a3906117f0565b60405180910390fd5b8060036000848152602001908152602001600020600001819055505050565b6060600480548060200260200160405190810160405280929190818152602001828054801561091957602002820191906000526020600020905b815481526020019060010190808311610905575b5050505050905090565b61092b610dcd565b6109356000610e54565b565b61093f610dcd565b600160009054906101000a900473ffffffffffffffffffffffffffffffffffffffff1673ffffffffffffffffffffffffffffffffffffffff166340c10f1984836040518363ffffffff1660e01b815260040161099c929190611917565b600060405180830381600087803b1580156109b657600080fd5b505af11580156109ca573d6000803e3d6000fd5b50505050600560008473ffffffffffffffffffffffffffffffffffffffff1673ffffffffffffffffffffffffffffffffffffffff16815260200190815260200160002060405180606001604052808481526020014281526020018381525090806001815401808255809150506001900390600052602060002090600302016000909190919091506000820151816000019081610a669190611ae2565b50602082015181600101556040820151816002015550508273ffffffffffffffffffffffffffffffffffffffff167f08686b63a7fb19ca0dca5ff7a65f9ae09f7d9e5b9726a4b69ee273963dfe4a058383604051610ac5929190611bb4565b60405180910390a2505050565b60008060009054906101000a900473ffffffffffffffffffffffffffffffffffffffff16905090565b610b03610dcd565b6003600084815260200190815260200160002060020160009054906101000a900460ff16610b555760048390806001815401808255809150506001900390600052602060002001600090919091909150555b60405180606001604052808381526020018281526020016001151581525060036000858152602001908152602001600020600082015181600001556020820151816001019081610ba59190611ae2565b5060408201518160020160006101000a81548160ff021916908315150217905550905050827f4d4137d563006cf5e0f1fda037eb626f970c549cffe98e450b1904cc4d9beef88383604051610bfb929190611be4565b60405180910390a2505050565b60056020528160005260406000208181548110610c2457600080fd5b906000526020600020906003020160009150915050806000018054610c4890611773565b80601f0160208091040260200160405190810160405280929190818152602001828054610c7490611773565b8015610cc15780601f10610c9657610100808354040283529160200191610cc1565b820191906000526020600020905b815481529060010190602001808311610ca457829003601f168201915b5050505050908060010154908060020154905083565b600260009054906101000a900473ffffffffffffffffffffffffffffffffffffffff1681565b60048181548110610d0d57600080fd5b906000526020600020016000915090505481565b600160009054906101000a900473ffffffffffffffffffffffffffffffffffffffff1681565b610d4f610dcd565b600073ffffffffffffffffffffffffffffffffffffffff168173ffffffffffffffffffffffffffffffffffffffff1603610dc15760006040517f1e4fbdf7000000000000000000000000000000000000000000000000000000008152600401610db8919061156b565b60405180910390fd5b610dca81610e54565b50565b610dd5610f18565b73ffffffffffffffffffffffffffffffffffffffff16610df3610ad2565b73ffffffffffffffffffffffffffffffffffffffff1614610e5257610e16610f18565b6040517f118cdaa7000000000000000000000000000000000000000000000000000000008152600401610e49919061156b565b60405180910390fd5b565b60008060009054906101000a900473ffffffffffffffffffffffffffffffffffffffff169050816000806101000a81548173ffffffffffffffffffffffffffffffffffffffff021916908373ffffffffffffffffffffffffffffffffffffffff1602179055508173ffffffffffffffffffffffffffffffffffffffff168173ffffffffffffffffffffffffffffffffffffffff167f8be0079c531659141344cd1fd0a4f28419497f9722a3daafe3b4186f6b6457e060405160405180910390a35050565b600033905090565b6000604051905090565b600080fd5b600080fd5b6000819050919050565b610f4781610f34565b8114610f5257600080fd5b50565b600081359050610f6481610f3e565b92915050565b600060208284031215610f8057610f7f610f2a565b5b6000610f8e84828501610f55565b91505092915050565b610fa081610f34565b82525050565b600081519050919050565b600082825260208201905092915050565b60005b83811015610fe0578082015181840152602081019050610fc5565b60008484015250505050565b6000601f19601f8301169050919050565b600061100882610fa6565b6110128185610fb1565b9350611022818560208601610fc2565b61102b81610fec565b840191505092915050565b60008115159050919050565b61104b81611036565b82525050565b60006060820190506110666000830186610f97565b81810360208301526110788185610ffd565b90506110876040830184611042565b949350505050565b600073ffffffffffffffffffffffffffffffffffffffff82169050919050565b60006110ba8261108f565b9050919050565b6110ca816110af565b81146110d557600080fd5b50565b6000813590506110e7816110c1565b92915050565b60006020828403121561110357611102610f2a565b5b6000611111848285016110d8565b91505092915050565b600081519050919050565b600082825260208201905092915050565b6000819050602082019050919050565b600082825260208201905092915050565b600061116282610fa6565b61116c8185611146565b935061117c818560208601610fc2565b61118581610fec565b840191505092915050565b61119981610f34565b82525050565b600060608301600083015184820360008601526111bc8282611157565b91505060208301516111d16020860182611190565b5060408301516111e46040860182611190565b508091505092915050565b60006111fb838361119f565b905092915050565b6000602082019050919050565b600061121b8261111a565b6112258185611125565b93508360208202850161123785611136565b8060005b85811015611273578484038952815161125485826111ef565b945061125f83611203565b925060208a0199505060018101905061123b565b50829750879550505050505092915050565b6000602082019050818103600083015261129f8184611210565b905092915050565b600080604083850312156112be576112bd610f2a565b5b60006112cc85828601610f55565b92505060206112dd85828601610f55565b9150509250929050565b600081519050919050565b600082825260208201905092915050565b6000819050602082019050919050565b600061131f8383611190565b60208301905092915050565b6000602082019050919050565b6000611343826112e7565b61134d81856112f2565b935061135883611303565b8060005b838110156113895781516113708882611313565b975061137b8361132b565b92505060018101905061135c565b5085935050505092915050565b600060208201905081810360008301526113b08184611338565b905092915050565b600080fd5b600080fd5b7f4e487b7100000000000000000000000000000000000000000000000000000000600052604160045260246000fd5b6113fa82610fec565b810181811067ffffffffffffffff82111715611419576114186113c2565b5b80604052505050565b600061142c610f20565b905061143882826113f1565b919050565b600067ffffffffffffffff821115611458576114576113c2565b5b61146182610fec565b9050602081019050919050565b82818337600083830152505050565b600061149061148b8461143d565b611422565b9050828152602081018484840111156114ac576114ab6113bd565b5b6114b784828561146e565b509392505050565b600082601f8301126114d4576114d36113b8565b5b81356114e484826020860161147d565b91505092915050565b60008060006060848603121561150657611505610f2a565b5b6000611514868287016110d8565b935050602084013567ffffffffffffffff81111561153557611534610f2f565b5b611541868287016114bf565b925050604061155286828701610f55565b9150509250925092565b611565816110af565b82525050565b6000602082019050611580600083018461155c565b92915050565b60008060006060848603121561159f5761159e610f2a565b5b60006115ad86828701610f55565b93505060206115be86828701610f55565b925050604084013567ffffffffffffffff8111156115df576115de610f2f565b5b6115eb868287016114bf565b9150509250925092565b6000806040838503121561160c5761160b610f2a565b5b600061161a858286016110d8565b925050602061162b85828601610f55565b9150509250929050565b6000606082019050818103600083015261164f8186610ffd565b905061165e6020830185610f97565b61166b6040830184610f97565b949350505050565b6000819050919050565b600061169861169361168e8461108f565b611673565b61108f565b9050919050565b60006116aa8261167d565b9050919050565b60006116bc8261169f565b9050919050565b6116cc816116b1565b82525050565b60006020820190506116e760008301846116c3565b92915050565b60006020820190506117026000830184610f97565b92915050565b60006117138261169f565b9050919050565b61172381611708565b82525050565b600060208201905061173e600083018461171a565b92915050565b7f4e487b7100000000000000000000000000000000000000000000000000000000600052602260045260246000fd5b6000600282049050600182168061178b57607f821691505b60208210810361179e5761179d611744565b5b50919050565b7f50617373207479706520646f6573206e6f742065786973740000000000000000600082015250565b60006117da601883610fb1565b91506117e5826117a4565b602082019050919050565b60006020820190508181036000830152611809816117cd565b9050919050565b7f496e73756666696369656e742066756e64730000000000000000000000000000600082015250565b6000611846601283610fb1565b915061185182611810565b602082019050919050565b6000602082019050818103600083015261187581611839565b9050919050565b6000604082019050611891600083018561155c565b81810360208301526118a38184610ffd565b90509392505050565b6000815190506118bb81610f3e565b92915050565b6000602082840312156118d7576118d6610f2a565b5b60006118e5848285016118ac565b91505092915050565b60006040820190506119036000830185610f97565b6119106020830184610f97565b9392505050565b600060408201905061192c600083018561155c565b6119396020830184610f97565b9392505050565b60008190508160005260206000209050919050565b60006020601f8301049050919050565b600082821b905092915050565b6000600883026119a27fffffffffffffffffffffffffffffffffffffffffffffffffffffffffffffffff82611965565b6119ac8683611965565b95508019841693508086168417925050509392505050565b60006119df6119da6119d584610f34565b611673565b610f34565b9050919050565b6000819050919050565b6119f9836119c4565b611a0d611a05826119e6565b848454611972565b825550505050565b600090565b611a22611a15565b611a2d8184846119f0565b505050565b5b81811015611a5157611a46600082611a1a565b600181019050611a33565b5050565b601f821115611a9657611a6781611940565b611a7084611955565b81016020851015611a7f578190505b611a93611a8b85611955565b830182611a32565b50505b505050565b600082821c905092915050565b6000611ab960001984600802611a9b565b1980831691505092915050565b6000611ad28383611aa8565b9150826002028217905092915050565b611aeb82610fa6565b67ffffffffffffffff811115611b0457611b036113c2565b5b611b0e8254611773565b611b19828285611a55565b600060209050601f831160018114611b4c5760008415611b3a578287015190505b611b448582611ac6565b865550611bac565b601f198416611b5a86611940565b60005b82811015611b8257848901518255600182019150602085019450602081019050611b5d565b86831015611b9f5784890151611b9b601f891682611aa8565b8355505b6001600288020188555050505b505050505050565b60006040820190508181036000830152611bce8185610ffd565b9050611bdd6020830184610f97565b9392505050565b6000604082019050611bf96000830185610f97565b8181036020830152611c0b8184610ffd565b9050939250505056fea26469706673582212201f990f6e44d859732e91f1327adf75f078ce1680da04dd59aeeb2dfa98f8fea064736f6c63430008140033",
  "linkReferences": {},
  "deployedLinkReferences": {}
}